{
  "address": "0xda0c7251d638ac29D7631D45Dc18dC7C31f4Bae0",
  "abi": [
    {
      "inputs": [
        {
          "internalType": "uint256",
          "name": "subscriptionId",
          "type": "uint256"
        },
        {
          "internalType": "address",
          "name": "vrfCoordinator",
          "type": "address"
        },
        {
          "internalType": "bytes32",
          "name": "keyHash",
          "type": "bytes32"
        },
        {
          "internalType": "uint256",
          "name": "minimumFees",
          "type": "uint256"
        },
        {
          "internalType": "uint256",
          "name": "interval",
          "type": "uint256"
        }
      ],
      "stateMutability": "nonpayable",
      "type": "constructor"
    },
    {
      "inputs": [],
      "name": "Lottery_EntryFeesNotSufficient",
      "type": "error"
    },
    {
      "inputs": [],
      "name": "Lottery_LotteryIsClosed",
      "type": "error"
    },
    {
      "inputs": [],
      "name": "Lottery__TransactionFailed",
      "type": "error"
    },
    {
      "inputs": [
        {
          "internalType": "bool",
          "name": "status",
          "type": "bool"
        },
        {
          "internalType": "uint256",
          "name": "length",
          "type": "uint256"
        },
        {
          "internalType": "uint256",
          "name": "balance",
          "type": "uint256"
        },
        {
          "internalType": "uint256",
          "name": "timePassed",
          "type": "uint256"
        }
      ],
      "name": "Lottery__UpkeepNotNeeded",
      "type": "error"
    },
    {
      "inputs": [
        {
          "internalType": "address",
          "name": "have",
          "type": "address"
        },
        {
          "internalType": "address",
          "name": "want",
          "type": "address"
        }
      ],
      "name": "OnlyCoordinatorCanFulfill",
      "type": "error"
    },
    {
      "inputs": [
        {
          "internalType": "address",
          "name": "have",
          "type": "address"
        },
        {
          "internalType": "address",
          "name": "owner",
          "type": "address"
        },
        {
          "internalType": "address",
          "name": "coordinator",
          "type": "address"
        }
      ],
      "name": "OnlyOwnerOrCoordinator",
      "type": "error"
    },
    {
      "inputs": [],
      "name": "OnlySimulatedBackend",
      "type": "error"
    },
    {
      "inputs": [],
      "name": "ZeroAddress",
      "type": "error"
    },
    {
      "anonymous": false,
      "inputs": [
        {
          "indexed": false,
          "internalType": "address",
          "name": "vrfCoordinator",
          "type": "address"
        }
      ],
      "name": "CoordinatorSet",
      "type": "event"
    },
    {
      "anonymous": false,
      "inputs": [
        {
          "indexed": true,
          "internalType": "address",
          "name": "from",
          "type": "address"
        },
        {
          "indexed": true,
          "internalType": "address",
          "name": "to",
          "type": "address"
        }
      ],
      "name": "OwnershipTransferRequested",
      "type": "event"
    },
    {
      "anonymous": false,
      "inputs": [
        {
          "indexed": true,
          "internalType": "address",
          "name": "from",
          "type": "address"
        },
        {
          "indexed": true,
          "internalType": "address",
          "name": "to",
          "type": "address"
        }
      ],
      "name": "OwnershipTransferred",
      "type": "event"
    },
    {
      "anonymous": false,
      "inputs": [
        {
          "indexed": false,
          "internalType": "address",
          "name": "sender",
          "type": "address"
        }
      ],
      "name": "ParticipantAdded",
      "type": "event"
    },
    {
      "anonymous": false,
      "inputs": [
        {
          "indexed": false,
          "internalType": "uint256",
          "name": "randomId",
          "type": "uint256"
        }
      ],
      "name": "RequestIdForRandomWords",
      "type": "event"
    },
    {
      "anonymous": false,
      "inputs": [
        {
          "indexed": false,
          "internalType": "address",
          "name": "recentWinner",
          "type": "address"
        }
      ],
      "name": "WinnerPicked",
      "type": "event"
    },
    {
      "inputs": [],
      "name": "acceptOwnership",
      "outputs": [],
      "stateMutability": "nonpayable",
      "type": "function"
    },
    {
      "inputs": [],
      "name": "callbackGasLimit",
      "outputs": [
        {
          "internalType": "uint32",
          "name": "",
          "type": "uint32"
        }
      ],
      "stateMutability": "view",
      "type": "function"
    },
    {
      "inputs": [
        {
          "internalType": "bytes",
          "name": "",
          "type": "bytes"
        }
      ],
      "name": "checkUpkeep",
      "outputs": [
        {
          "internalType": "bool",
          "name": "upkeepNeeded",
          "type": "bool"
        },
        {
          "internalType": "bytes",
          "name": "",
          "type": "bytes"
        }
      ],
      "stateMutability": "view",
      "type": "function"
    },
    {
      "inputs": [],
      "name": "getConfirmationsNumber",
      "outputs": [
        {
          "internalType": "uint256",
          "name": "",
          "type": "uint256"
        }
      ],
      "stateMutability": "pure",
      "type": "function"
    },
    {
      "inputs": [],
      "name": "getInterval",
      "outputs": [
        {
          "internalType": "uint256",
          "name": "",
          "type": "uint256"
        }
      ],
      "stateMutability": "view",
      "type": "function"
    },
    {
      "inputs": [],
      "name": "getLotteryNumber",
      "outputs": [
        {
          "internalType": "uint32",
          "name": "",
          "type": "uint32"
        }
      ],
      "stateMutability": "pure",
      "type": "function"
    },
    {
      "inputs": [],
      "name": "getLotteryState",
      "outputs": [
        {
          "internalType": "enum Lottery.LotteryStatus",
          "name": "",
          "type": "uint8"
        }
      ],
      "stateMutability": "view",
      "type": "function"
    },
    {
      "inputs": [],
      "name": "getMinimumEntryFees",
      "outputs": [
        {
          "internalType": "uint256",
          "name": "amount",
          "type": "uint256"
        }
      ],
      "stateMutability": "view",
      "type": "function"
    },
    {
      "inputs": [],
      "name": "getNUmberOfParticipants",
      "outputs": [
        {
          "internalType": "uint256",
          "name": "",
          "type": "uint256"
        }
      ],
      "stateMutability": "view",
      "type": "function"
    },
    {
      "inputs": [
        {
          "internalType": "uint256",
          "name": "index",
          "type": "uint256"
        }
      ],
      "name": "getParticipant",
      "outputs": [
        {
          "internalType": "address",
          "name": "",
          "type": "address"
        }
      ],
      "stateMutability": "view",
      "type": "function"
    },
    {
      "inputs": [],
      "name": "getRecentWinner",
      "outputs": [
        {
          "internalType": "address",
          "name": "winner",
          "type": "address"
        }
      ],
      "stateMutability": "view",
      "type": "function"
    },
    {
      "inputs": [],
      "name": "getTimeStamp",
      "outputs": [
        {
          "internalType": "uint256",
          "name": "",
          "type": "uint256"
        }
      ],
      "stateMutability": "view",
      "type": "function"
    },
    {
      "inputs": [],
      "name": "owner",
      "outputs": [
        {
          "internalType": "address",
          "name": "",
          "type": "address"
        }
      ],
      "stateMutability": "view",
      "type": "function"
    },
    {
      "inputs": [],
      "name": "participateInLottery",
      "outputs": [
        {
          "internalType": "address",
          "name": "participantAddress",
          "type": "address"
        }
      ],
      "stateMutability": "payable",
      "type": "function"
    },
    {
      "inputs": [
        {
          "internalType": "bytes",
          "name": "",
          "type": "bytes"
        }
      ],
      "name": "performUpkeep",
      "outputs": [],
      "stateMutability": "nonpayable",
      "type": "function"
    },
    {
      "inputs": [
        {
          "internalType": "uint256",
          "name": "requestId",
          "type": "uint256"
        },
        {
          "internalType": "uint256[]",
          "name": "randomWords",
          "type": "uint256[]"
        }
      ],
      "name": "rawFulfillRandomWords",
      "outputs": [],
      "stateMutability": "nonpayable",
      "type": "function"
    },
    {
      "inputs": [],
      "name": "s_lastRequestId",
      "outputs": [
        {
          "internalType": "uint256",
          "name": "",
          "type": "uint256"
        }
      ],
      "stateMutability": "view",
      "type": "function"
    },
    {
      "inputs": [],
      "name": "s_previousTime",
      "outputs": [
        {
          "internalType": "uint256",
          "name": "",
          "type": "uint256"
        }
      ],
      "stateMutability": "view",
      "type": "function"
    },
    {
      "inputs": [],
      "name": "s_vrfCoordinator",
      "outputs": [
        {
          "internalType": "contract IVRFCoordinatorV2Plus",
          "name": "",
          "type": "address"
        }
      ],
      "stateMutability": "view",
      "type": "function"
    },
    {
      "inputs": [
        {
          "internalType": "address",
          "name": "_vrfCoordinator",
          "type": "address"
        }
      ],
      "name": "setCoordinator",
      "outputs": [],
      "stateMutability": "nonpayable",
      "type": "function"
    },
    {
      "inputs": [
        {
          "internalType": "address",
          "name": "to",
          "type": "address"
        }
      ],
      "name": "transferOwnership",
      "outputs": [],
      "stateMutability": "nonpayable",
      "type": "function"
    }
  ],
  "transactionHash": "0xa665ae106f7166cd3836a67c8fc6fd0d75de322f5fda7f9a25cc67d8ba1cb32a",
  "args": [
    "109474366422538109451288223825034061645330404981419548132713250946302133135601",
    "0x9DdfaCa8183c41ad55329BdeeD9F6A8d53168B1B",
    "0x787d74caea10b2b357790d5b5247c2f63d1d91572a9846f780606e4d953677ae",
    "10000000000000000",
    "30"
  ],
  "numDeployments": 2,
  "solcInputHash": "67c691de00b2942c6f3f66caa60d4070",
  "bytecode": "0x610100604052620186a0600260146101000a81548163ffffffff021916908363ffffffff1602179055503480156200003657600080fd5b50604051620026e2380380620026e283398181016040528101906200005c919062000474565b83338060008073ffffffffffffffffffffffffffffffffffffffff168273ffffffffffffffffffffffffffffffffffffffff1603620000d2576040517f08c379a0000000000000000000000000000000000000000000000000000000008152600401620000c9906200055d565b60405180910390fd5b816000806101000a81548173ffffffffffffffffffffffffffffffffffffffff021916908373ffffffffffffffffffffffffffffffffffffffff160217905550600073ffffffffffffffffffffffffffffffffffffffff168173ffffffffffffffffffffffffffffffffffffffff1614620001595762000158816200026560201b60201c565b5b505050600073ffffffffffffffffffffffffffffffffffffffff168173ffffffffffffffffffffffffffffffffffffffff1603620001c3576040517fd92e233d00000000000000000000000000000000000000000000000000000000815260040160405180910390fd5b80600260006101000a81548173ffffffffffffffffffffffffffffffffffffffff021916908373ffffffffffffffffffffffffffffffffffffffff160217905550508460c081815250508260a0818152505081608081815250508060e081815250506000600660006101000a81548160ff021916908360018111156200024e576200024d6200057f565b5b021790555042600781905550505050505062000620565b3373ffffffffffffffffffffffffffffffffffffffff168173ffffffffffffffffffffffffffffffffffffffff1603620002d6576040517f08c379a0000000000000000000000000000000000000000000000000000000008152600401620002cd90620005fe565b60405180910390fd5b80600160006101000a81548173ffffffffffffffffffffffffffffffffffffffff021916908373ffffffffffffffffffffffffffffffffffffffff1602179055508073ffffffffffffffffffffffffffffffffffffffff1660008054906101000a900473ffffffffffffffffffffffffffffffffffffffff1673ffffffffffffffffffffffffffffffffffffffff167fed8889f560326eb138920d842192f0eb3dd22b4f139c87a2c57538e05bae127860405160405180910390a350565b600080fd5b6000819050919050565b620003ae8162000399565b8114620003ba57600080fd5b50565b600081519050620003ce81620003a3565b92915050565b600073ffffffffffffffffffffffffffffffffffffffff82169050919050565b60006200040182620003d4565b9050919050565b6200041381620003f4565b81146200041f57600080fd5b50565b600081519050620004338162000408565b92915050565b6000819050919050565b6200044e8162000439565b81146200045a57600080fd5b50565b6000815190506200046e8162000443565b92915050565b600080600080600060a0868803121562000493576200049262000394565b5b6000620004a388828901620003bd565b9550506020620004b68882890162000422565b9450506040620004c9888289016200045d565b9350506060620004dc88828901620003bd565b9250506080620004ef88828901620003bd565b9150509295509295909350565b600082825260208201905092915050565b7f43616e6e6f7420736574206f776e657220746f207a65726f0000000000000000600082015250565b600062000545601883620004fc565b915062000552826200050d565b602082019050919050565b60006020820190508181036000830152620005788162000536565b9050919050565b7f4e487b7100000000000000000000000000000000000000000000000000000000600052602160045260246000fd5b7f43616e6e6f74207472616e7366657220746f2073656c66000000000000000000600082015250565b6000620005e6601783620004fc565b9150620005f382620005ae565b602082019050919050565b600060208201905081810360008301526200061981620005d7565b9050919050565b60805160a05160c05160e0516120736200066f600039600081816107d501528181610b020152610f0101526000610959015260006109330152600081816104b5015261060101526120736000f3fe6080604052600436106101295760003560e01c80636e04ff0d116100ab57806391ad27b41161006f57806391ad27b4146103b15780639eccacf6146103dc578063b1e2174914610407578063da235b2214610432578063f2fde38b1461045d578063f979db711461048657610129565b80636e04ff0d146102dd57806378b020441461031b57806379ba5097146103465780638da5cb5b1461035d5780638ea981171461038857610129565b8063407fdec0116100f2578063407fdec0146102085780634585e33b14610233578063473f1ddc1461025c57806349ea1d5c146102875780636b68c03c146102b257610129565b80620ed5de1461012e5780631b9db2ef146101595780631fe543e31461019657806324f74697146101bf57806332dd7204146101ea575b600080fd5b34801561013a57600080fd5b506101436104b1565b6040516101509190611419565b60405180910390f35b34801561016557600080fd5b50610180600480360381019061017b9190611474565b6104d9565b60405161018d91906114e2565b60405180910390f35b3480156101a257600080fd5b506101bd60048036038101906101b89190611562565b610521565b005b3480156101cb57600080fd5b506101d46105e7565b6040516101e191906115e1565b60405180910390f35b6101f26105fd565b6040516101ff91906114e2565b60405180910390f35b34801561021457600080fd5b5061021d610766565b60405161022a9190611419565b60405180910390f35b34801561023f57600080fd5b5061025a60048036038101906102559190611652565b610773565b005b34801561026857600080fd5b50610271610a5e565b60405161027e91906114e2565b60405180910390f35b34801561029357600080fd5b5061029c610a88565b6040516102a99190611419565b60405180910390f35b3480156102be57600080fd5b506102c7610a95565b6040516102d49190611716565b60405180910390f35b3480156102e957600080fd5b5061030460048036038101906102ff9190611872565b610aac565b604051610312929190611955565b60405180910390f35b34801561032757600080fd5b50610330610b58565b60405161033d9190611419565b60405180910390f35b34801561035257600080fd5b5061035b610b5e565b005b34801561036957600080fd5b50610372610cf3565b60405161037f91906114e2565b60405180910390f35b34801561039457600080fd5b506103af60048036038101906103aa91906119b1565b610d1c565b005b3480156103bd57600080fd5b506103c6610efd565b6040516103d39190611419565b60405180910390f35b3480156103e857600080fd5b506103f1610f25565b6040516103fe9190611a3d565b60405180910390f35b34801561041357600080fd5b5061041c610f4b565b6040516104299190611419565b60405180910390f35b34801561043e57600080fd5b50610447610f51565b6040516104549190611419565b60405180910390f35b34801561046957600080fd5b50610484600480360381019061047f91906119b1565b610f59565b005b34801561049257600080fd5b5061049b610f6d565b6040516104a891906115e1565b60405180910390f35b60007f0000000000000000000000000000000000000000000000000000000000000000905090565b6000600582815481106104ef576104ee611a58565b5b9060005260206000200160009054906101000a900473ffffffffffffffffffffffffffffffffffffffff169050919050565b600260009054906101000a900473ffffffffffffffffffffffffffffffffffffffff1673ffffffffffffffffffffffffffffffffffffffff163373ffffffffffffffffffffffffffffffffffffffff16146105d75733600260009054906101000a900473ffffffffffffffffffffffffffffffffffffffff166040517f1cf993f40000000000000000000000000000000000000000000000000000000081526004016105ce929190611a87565b60405180910390fd5b6105e2838383610f76565b505050565b600260149054906101000a900463ffffffff1681565b60007f0000000000000000000000000000000000000000000000000000000000000000341015610659576040517f52c367f200000000000000000000000000000000000000000000000000000000815260040160405180910390fd5b6000600181111561066d5761066c61169f565b5b600660009054906101000a900460ff16600181111561068f5761068e61169f565b5b146106c6576040517fb653539200000000000000000000000000000000000000000000000000000000815260040160405180910390fd5b6005339080600181540180825580915050600190039060005260206000200160009091909190916101000a81548173ffffffffffffffffffffffffffffffffffffffff021916908373ffffffffffffffffffffffffffffffffffffffff1602179055507f31d3ac54da09405b02d1de0ee0de648de637fbdc111123be0d7fc31f2a544c0b3360405161075891906114e2565b60405180910390a133905090565b6000600361ffff16905090565b600061078d60405180602001604052806000815250610aac565b5090508061084057600060018111156107a9576107a861169f565b5b600660009054906101000a900460ff1660018111156107cb576107ca61169f565b5b14600580549050477f00000000000000000000000000000000000000000000000000000000000000006007546108019190611adf565b6040517f7aa7aab30000000000000000000000000000000000000000000000000000000081526004016108379493929190611b13565b60405180910390fd5b60006040518060200160405280600015158152506040516020016108649190611b83565b604051602081830303815290604052905060007f92fd13387c7fe7befbc38d303d6468778fb9731bc4583f17d92989c6fcfdeaaa826040516020016108aa929190611c27565b60405160208183030381529060405290506001600660006101000a81548160ff021916908360018111156108e1576108e061169f565b5b02179055506000600260009054906101000a900473ffffffffffffffffffffffffffffffffffffffff1673ffffffffffffffffffffffffffffffffffffffff16639b1c385e6040518060c001604052807f000000000000000000000000000000000000000000000000000000000000000081526020017f00000000000000000000000000000000000000000000000000000000000000008152602001600361ffff168152602001600260149054906101000a900463ffffffff1663ffffffff168152602001600163ffffffff168152602001858152506040518263ffffffff1660e01b81526004016109d39190611d76565b6020604051808303816000875af11580156109f2573d6000803e3d6000fd5b505050506040513d601f19601f82011682018060405250810190610a169190611dad565b9050806003819055507fc3c100c031d95c03f713374ecbcf4b262e6f589eac8c5f07b6ac692f7fbdff3281604051610a4e9190611419565b60405180910390a1505050505050565b6000600460009054906101000a900473ffffffffffffffffffffffffffffffffffffffff16905090565b6000600580549050905090565b6000600660009054906101000a900460ff16905090565b600060606000806001811115610ac557610ac461169f565b5b600660009054906101000a900460ff166001811115610ae757610ae661169f565b5b149050600080600580549050119050600080471190506000427f0000000000000000000000000000000000000000000000000000000000000000600754610b2e9190611adf565b109050838015610b3b5750825b8015610b445750815b8015610b4d5750805b955050505050915091565b60075481565b600160009054906101000a900473ffffffffffffffffffffffffffffffffffffffff1673ffffffffffffffffffffffffffffffffffffffff163373ffffffffffffffffffffffffffffffffffffffff1614610bee576040517f08c379a0000000000000000000000000000000000000000000000000000000008152600401610be590611e37565b60405180910390fd5b60008060009054906101000a900473ffffffffffffffffffffffffffffffffffffffff169050336000806101000a81548173ffffffffffffffffffffffffffffffffffffffff021916908373ffffffffffffffffffffffffffffffffffffffff1602179055506000600160006101000a81548173ffffffffffffffffffffffffffffffffffffffff021916908373ffffffffffffffffffffffffffffffffffffffff1602179055503373ffffffffffffffffffffffffffffffffffffffff168173ffffffffffffffffffffffffffffffffffffffff167f8be0079c531659141344cd1fd0a4f28419497f9722a3daafe3b4186f6b6457e060405160405180910390a350565b60008060009054906101000a900473ffffffffffffffffffffffffffffffffffffffff16905090565b610d24610cf3565b73ffffffffffffffffffffffffffffffffffffffff163373ffffffffffffffffffffffffffffffffffffffff1614158015610dad5750600260009054906101000a900473ffffffffffffffffffffffffffffffffffffffff1673ffffffffffffffffffffffffffffffffffffffff163373ffffffffffffffffffffffffffffffffffffffff1614155b15610e1c5733610dbb610cf3565b600260009054906101000a900473ffffffffffffffffffffffffffffffffffffffff166040517f061db9c1000000000000000000000000000000000000000000000000000000008152600401610e1393929190611e57565b60405180910390fd5b600073ffffffffffffffffffffffffffffffffffffffff168173ffffffffffffffffffffffffffffffffffffffff1603610e82576040517fd92e233d00000000000000000000000000000000000000000000000000000000815260040160405180910390fd5b80600260006101000a81548173ffffffffffffffffffffffffffffffffffffffff021916908373ffffffffffffffffffffffffffffffffffffffff1602179055507fd1a6a14209a385a964d036e404cb5cfb71f4000cdb03c9366292430787261be681604051610ef291906114e2565b60405180910390a150565b60007f0000000000000000000000000000000000000000000000000000000000000000905090565b600260009054906101000a900473ffffffffffffffffffffffffffffffffffffffff1681565b60035481565b600042905090565b610f6161119d565b610f6a8161122d565b50565b60006001905090565b600060058054905083836000818110610f9257610f91611a58565b5b90506020020135610fa39190611ebd565b9050600060058281548110610fbb57610fba611a58565b5b9060005260206000200160009054906101000a900473ffffffffffffffffffffffffffffffffffffffff16905060008173ffffffffffffffffffffffffffffffffffffffff164760405161100e90611f14565b60006040518083038185875af1925050503d806000811461104b576040519150601f19603f3d011682016040523d82523d6000602084013e611050565b606091505b505090508061108b576040517f5271696c00000000000000000000000000000000000000000000000000000000815260040160405180910390fd5b81600460006101000a81548173ffffffffffffffffffffffffffffffffffffffff021916908373ffffffffffffffffffffffffffffffffffffffff1602179055506000600660006101000a81548160ff021916908360018111156110f2576110f161169f565b5b0217905550600067ffffffffffffffff81111561111257611111611747565b5b6040519080825280602002602001820160405280156111405781602001602082028036833780820191505090505b5060059080519060200190611156929190611359565b50426007819055507f5b690ec4a06fe979403046eaeea5b3ce38524683c3001f662c8b5a829632f7df8260405161118d9190611f4a565b60405180910390a1505050505050565b60008054906101000a900473ffffffffffffffffffffffffffffffffffffffff1673ffffffffffffffffffffffffffffffffffffffff163373ffffffffffffffffffffffffffffffffffffffff161461122b576040517f08c379a000000000000000000000000000000000000000000000000000000000815260040161122290611fb1565b60405180910390fd5b565b3373ffffffffffffffffffffffffffffffffffffffff168173ffffffffffffffffffffffffffffffffffffffff160361129b576040517f08c379a00000000000000000000000000000000000000000000000000000000081526004016112929061201d565b60405180910390fd5b80600160006101000a81548173ffffffffffffffffffffffffffffffffffffffff021916908373ffffffffffffffffffffffffffffffffffffffff1602179055508073ffffffffffffffffffffffffffffffffffffffff1660008054906101000a900473ffffffffffffffffffffffffffffffffffffffff1673ffffffffffffffffffffffffffffffffffffffff167fed8889f560326eb138920d842192f0eb3dd22b4f139c87a2c57538e05bae127860405160405180910390a350565b8280548282559060005260206000209081019282156113d2579160200282015b828111156113d15782518260006101000a81548173ffffffffffffffffffffffffffffffffffffffff021916908373ffffffffffffffffffffffffffffffffffffffff16021790555091602001919060010190611379565b5b5090506113df91906113e3565b5090565b5b808211156113fc5760008160009055506001016113e4565b5090565b6000819050919050565b61141381611400565b82525050565b600060208201905061142e600083018461140a565b92915050565b6000604051905090565b600080fd5b600080fd5b61145181611400565b811461145c57600080fd5b50565b60008135905061146e81611448565b92915050565b60006020828403121561148a5761148961143e565b5b60006114988482850161145f565b91505092915050565b600073ffffffffffffffffffffffffffffffffffffffff82169050919050565b60006114cc826114a1565b9050919050565b6114dc816114c1565b82525050565b60006020820190506114f760008301846114d3565b92915050565b600080fd5b600080fd5b600080fd5b60008083601f840112611522576115216114fd565b5b8235905067ffffffffffffffff81111561153f5761153e611502565b5b60208301915083602082028301111561155b5761155a611507565b5b9250929050565b60008060006040848603121561157b5761157a61143e565b5b60006115898682870161145f565b935050602084013567ffffffffffffffff8111156115aa576115a9611443565b5b6115b68682870161150c565b92509250509250925092565b600063ffffffff82169050919050565b6115db816115c2565b82525050565b60006020820190506115f660008301846115d2565b92915050565b60008083601f840112611612576116116114fd565b5b8235905067ffffffffffffffff81111561162f5761162e611502565b5b60208301915083600182028301111561164b5761164a611507565b5b9250929050565b600080602083850312156116695761166861143e565b5b600083013567ffffffffffffffff81111561168757611686611443565b5b611693858286016115fc565b92509250509250929050565b7f4e487b7100000000000000000000000000000000000000000000000000000000600052602160045260246000fd5b600281106116df576116de61169f565b5b50565b60008190506116f0826116ce565b919050565b6000611700826116e2565b9050919050565b611710816116f5565b82525050565b600060208201905061172b6000830184611707565b92915050565b600080fd5b6000601f19601f8301169050919050565b7f4e487b7100000000000000000000000000000000000000000000000000000000600052604160045260246000fd5b61177f82611736565b810181811067ffffffffffffffff8211171561179e5761179d611747565b5b80604052505050565b60006117b1611434565b90506117bd8282611776565b919050565b600067ffffffffffffffff8211156117dd576117dc611747565b5b6117e682611736565b9050602081019050919050565b82818337600083830152505050565b6000611815611810846117c2565b6117a7565b90508281526020810184848401111561183157611830611731565b5b61183c8482856117f3565b509392505050565b600082601f830112611859576118586114fd565b5b8135611869848260208601611802565b91505092915050565b6000602082840312156118885761188761143e565b5b600082013567ffffffffffffffff8111156118a6576118a5611443565b5b6118b284828501611844565b91505092915050565b60008115159050919050565b6118d0816118bb565b82525050565b600081519050919050565b600082825260208201905092915050565b60005b838110156119105780820151818401526020810190506118f5565b60008484015250505050565b6000611927826118d6565b61193181856118e1565b93506119418185602086016118f2565b61194a81611736565b840191505092915050565b600060408201905061196a60008301856118c7565b818103602083015261197c818461191c565b90509392505050565b61198e816114c1565b811461199957600080fd5b50565b6000813590506119ab81611985565b92915050565b6000602082840312156119c7576119c661143e565b5b60006119d58482850161199c565b91505092915050565b6000819050919050565b6000611a036119fe6119f9846114a1565b6119de565b6114a1565b9050919050565b6000611a15826119e8565b9050919050565b6000611a2782611a0a565b9050919050565b611a3781611a1c565b82525050565b6000602082019050611a526000830184611a2e565b92915050565b7f4e487b7100000000000000000000000000000000000000000000000000000000600052603260045260246000fd5b6000604082019050611a9c60008301856114d3565b611aa960208301846114d3565b9392505050565b7f4e487b7100000000000000000000000000000000000000000000000000000000600052601160045260246000fd5b6000611aea82611400565b9150611af583611400565b9250828201905080821115611b0d57611b0c611ab0565b5b92915050565b6000608082019050611b2860008301876118c7565b611b35602083018661140a565b611b42604083018561140a565b611b4f606083018461140a565b95945050505050565b611b61816118bb565b82525050565b602082016000820151611b7d6000850182611b58565b50505050565b6000602082019050611b986000830184611b67565b92915050565b60007fffffffff0000000000000000000000000000000000000000000000000000000082169050919050565b6000819050919050565b611be5611be082611b9e565b611bca565b82525050565b600081905092915050565b6000611c01826118d6565b611c0b8185611beb565b9350611c1b8185602086016118f2565b80840191505092915050565b6000611c338285611bd4565b600482019150611c438284611bf6565b91508190509392505050565b6000819050919050565b611c6281611c4f565b82525050565b611c7181611400565b82525050565b600061ffff82169050919050565b611c8e81611c77565b82525050565b611c9d816115c2565b82525050565b600082825260208201905092915050565b6000611cbf826118d6565b611cc98185611ca3565b9350611cd98185602086016118f2565b611ce281611736565b840191505092915050565b600060c083016000830151611d056000860182611c59565b506020830151611d186020860182611c68565b506040830151611d2b6040860182611c85565b506060830151611d3e6060860182611c94565b506080830151611d516080860182611c94565b5060a083015184820360a0860152611d698282611cb4565b9150508091505092915050565b60006020820190508181036000830152611d908184611ced565b905092915050565b600081519050611da781611448565b92915050565b600060208284031215611dc357611dc261143e565b5b6000611dd184828501611d98565b91505092915050565b600082825260208201905092915050565b7f4d7573742062652070726f706f736564206f776e657200000000000000000000600082015250565b6000611e21601683611dda565b9150611e2c82611deb565b602082019050919050565b60006020820190508181036000830152611e5081611e14565b9050919050565b6000606082019050611e6c60008301866114d3565b611e7960208301856114d3565b611e8660408301846114d3565b949350505050565b7f4e487b7100000000000000000000000000000000000000000000000000000000600052601260045260246000fd5b6000611ec882611400565b9150611ed383611400565b925082611ee357611ee2611e8e565b5b828206905092915050565b50565b6000611efe600083611beb565b9150611f0982611eee565b600082019050919050565b6000611f1f82611ef1565b9150819050919050565b6000611f3482611a0a565b9050919050565b611f4481611f29565b82525050565b6000602082019050611f5f6000830184611f3b565b92915050565b7f4f6e6c792063616c6c61626c65206279206f776e657200000000000000000000600082015250565b6000611f9b601683611dda565b9150611fa682611f65565b602082019050919050565b60006020820190508181036000830152611fca81611f8e565b9050919050565b7f43616e6e6f74207472616e7366657220746f2073656c66000000000000000000600082015250565b6000612007601783611dda565b915061201282611fd1565b602082019050919050565b6000602082019050818103600083015261203681611ffa565b905091905056fea2646970667358221220f75328818887389ee283b3ccabf6cab543e8a2bd88fab252807dac50d9a9b91664736f6c63430008130033",
  "devdoc": {
    "kind": "dev",
    "methods": {
      "performUpkeep(bytes)": {
        "details": "the chainlink keeper nodes monitor the checkUpKepp function when the function returns  true this function gets executed  the condition specified are met  for this case the conditons are the election must be active , participants must exist  the funds must exist and the time must be exhausted for the lottery"
      }
    },
    "version": 1
  },
  "userdoc": {
    "kind": "user",
    "methods": {
      "acceptOwnership()": {
        "notice": "Allows an ownership transfer to be completed by the recipient."
      },
      "owner()": {
        "notice": "Get the current owner"
      },
      "setCoordinator(address)": {
        "notice": "Sets the VRF Coordinator addressThis method should only be callable by the coordinator or contract owner"
      },
      "transferOwnership(address)": {
        "notice": "Allows an owner to begin transferring ownership to a new address."
      }
    },
    "version": 1
  },
  "storageLayout": {
    "storage": [
      {
        "astId": 97,
        "contract": "contracts/Lottery.sol:Lottery",
        "label": "s_owner",
        "offset": 0,
        "slot": "0",
        "type": "t_address"
      },
      {
        "astId": 99,
        "contract": "contracts/Lottery.sol:Lottery",
        "label": "s_pendingOwner",
        "offset": 0,
        "slot": "1",
        "type": "t_address"
      },
      {
        "astId": 299,
        "contract": "contracts/Lottery.sol:Lottery",
        "label": "s_vrfCoordinator",
        "offset": 0,
        "slot": "2",
        "type": "t_contract(IVRFCoordinatorV2Plus)448"
      },
      {
        "astId": 631,
        "contract": "contracts/Lottery.sol:Lottery",
        "label": "callbackGasLimit",
        "offset": 20,
        "slot": "2",
        "type": "t_uint32"
      },
      {
        "astId": 641,
        "contract": "contracts/Lottery.sol:Lottery",
        "label": "s_lastRequestId",
        "offset": 0,
        "slot": "3",
        "type": "t_uint256"
      },
      {
        "astId": 643,
        "contract": "contracts/Lottery.sol:Lottery",
        "label": "s_recentWinner",
        "offset": 0,
        "slot": "4",
        "type": "t_address"
      },
      {
        "astId": 646,
        "contract": "contracts/Lottery.sol:Lottery",
        "label": "s_participants",
        "offset": 0,
        "slot": "5",
        "type": "t_array(t_address_payable)dyn_storage"
      },
      {
        "astId": 649,
        "contract": "contracts/Lottery.sol:Lottery",
        "label": "s_lotteryStatus",
        "offset": 0,
        "slot": "6",
        "type": "t_enum(LotteryStatus)624"
      },
      {
        "astId": 651,
        "contract": "contracts/Lottery.sol:Lottery",
        "label": "s_previousTime",
        "offset": 0,
        "slot": "7",
        "type": "t_uint256"
      }
    ],
    "types": {
      "t_address": {
        "encoding": "inplace",
        "label": "address",
        "numberOfBytes": "20"
      },
      "t_address_payable": {
        "encoding": "inplace",
        "label": "address payable",
        "numberOfBytes": "20"
      },
      "t_array(t_address_payable)dyn_storage": {
        "base": "t_address_payable",
        "encoding": "dynamic_array",
        "label": "address payable[]",
        "numberOfBytes": "32"
      },
      "t_contract(IVRFCoordinatorV2Plus)448": {
        "encoding": "inplace",
        "label": "contract IVRFCoordinatorV2Plus",
        "numberOfBytes": "20"
      },
      "t_enum(LotteryStatus)624": {
        "encoding": "inplace",
        "label": "enum Lottery.LotteryStatus",
        "numberOfBytes": "1"
      },
      "t_uint256": {
        "encoding": "inplace",
        "label": "uint256",
        "numberOfBytes": "32"
      },
      "t_uint32": {
        "encoding": "inplace",
        "label": "uint32",
        "numberOfBytes": "4"
      }
    }
  }
}